:200000000C944E010C9476010C9476010C9476010C9476010C9476010C9476010C94760150
:200020000C9476010C9476010C94861E0C94F51E0C9476010C9476010C9476010C9476013F
:200040000C9476010C9476010C9476010C9476010C9476010C9476010C9476010C943C1E05
:200060000C9476010C94DA200C94B4200C9476010C9476010C9476010C9476010C947601E8
:200080000C9476010C9476010C9476010C9476010C9476010C9476010C9476010C947601A8
:2000A0000C9476010C9476010C94760105A84CCDB2D44EB93836A9020C50B9918688083C97
:2000C000A6AAAA2ABE000000803F0664EC1B3C04BC163E3BE5B93CC93C37C29E5A3D66040C
:2000E00098083EEA69AAAA3E000000803F07634236B79BD8A71A39685618AEBAAB558C1D91
:200100003CB7CC5763BD6DEDFD753EF6177231BF000000803F08000000BE922449123EABB1
:20012000AAAA2ABECDCCCC4C3E00000080BEABAAAAAA3E00000000BF000000803F000000F1
:200140000000084178D3BB4387D1133D190E3CC3BD4282AD2B3E68EC8276BED98FE1A93E6E
:200160004C80EFFFBE01C4FF7F3F00000000000042756666657220706F696E746572206981
:2001800073204E554C4C210D0A00092111012101224500040309041201000200000008F370
:2001A0001A01000100010200014B696E67736973205065726970686572616C73005A4F57A8
:2001C00049452047616D696E67206D6F75736500070605040100080A0B0C0D09000000027D
:2001E00000090F0000030401000C00000000000000000000000000000000000000000025AE
:200200000028002B002E00310000000000240027002A002D00300004040404040304050238
:20022000020202040302020202060606060606040402020204040408020110408040102020
:2002400040804080080204018040201002011080102040402005010902A1010901A1000559
:2002600009190129061500250195067501810295027501810105010930093116018026FF99
:200280007F751095028106C0A10095017508050109381581257F8106C0C0D02111241FBE3D
:2002A000CFEFDAE0DEBFCDBF12E0A0E0B1E0ECE6FEE602C005900D92A239B107D9F726E085
:2002C000A2E9B2E001C01D92A630B207E1F711E0CEE4D1E004C02197FE010E94C630CD34C2
:2002E000D107C9F70E94C5230C9434370C9400008CBD9DBD089590E0FC01EA5CFD4F24913D
:20030000895E9D4FFC018491882399F090E0880F991FFC01E75FFD4FA591B491FC01E550C9
:20032000FE4F859194918FB7F894EC91E22BEC938FBF08953FB7F8948091E5039091E603EA
:20034000A091E703B091E80326B5A89B05C02F3F19F00196A11DB11D3FBFBA2FA92F982F53
:200360008827BC01CD01620F711D811D911D42E0660F771F881F991F4A95D1F708958F9207
:200380009F92AF92BF92CF92DF92EF92FF924B015C010E949A016B017C010E949A016C1925
:2003A0007D098E099F09683E734081059105A8F321E0821A9108A108B10888EEC80E83E021
:2003C000D81EE11CF11C81149104A104B10429F7FF90EF90DF90CF90BF90AF909F908F90C1
:2003E00008958F929F92AF92BF92CF92DF92EF92FF920F931F93CF93DF93E82E8B018091BD
:20040000EC0381110FC08FEF9FEFDF91CF911F910F91FF90EF90DF90CF90BF90AF909F90C7
:200420008F9008958091EB0380FF05C08091E00082608093E0008AEFD82EF12CC6E0D0E005
:200440002E2D2770B22E90E4A92E8E2D8072982E2E2D2074822E2AE3C22E9FB7F894B0924C
:20046000E9008091E80085FD15C09FBFDA94DD2051F261E070E080E090E00E94BF012097BD
:2004800061F7F110EACF5D9884E68093EA0386E090E0BBCF8091F2002A2D281B822F9FBFDF
:2004A000222321F32C171D0611F00CF08C2F9FB7F894B092E9002091E80025FD02C09FBFDD
:2004C000DECF282F30E0C21BD30B992029F08150A0F01092F100FBCFF801E7FC0AC0815046
:2004E00050F041914093F100FACF44914093F10031968150D0F7020F131FFF2021F0C092A0
:20050000E800F12CDCCF8091E80085FD07C0C092E800FF24F394209791F2F3CF209779F6E3
:20052000882069F2C092E800CACF2FB7F8946091E1037091E2038091E3039091E4032FBFCB
:2005400008954091B9025091BA022091B7023091B80242175307B4F49091E8009570E1F3B3
:200560009091E80092FD19C08093F1008091B9029091BA02019687709927892B19F48EEFD1
:200580008093E8008091B9029091BA0201969093BA028093B90281E0089580E00895DF9207
:2005A000EF92FF920F931F93CF93DF93D82E8A01EB017B01E40EF51ECE15DF0559F0D7FE1E
:2005C00012C0FE0184910E94A10221968111F4CF0FEF1FEFC801DF91CF911F910F91FF9060
:2005E000EF90DF9008958881EECF615030F02091F100FC0120830196F8CF289884E68093FC
:20060000BB0208958091E80080FFFCCF0895EF92FF920F931F93CF93DF93182FE92E062FD3
:2006200081E0860F880F0E94A10283E00E94A102F12EC12FDE2DFE0184910E94A102182F86
:2006400080E00E94A102182351F021968C2F8F19801788F30E9402038EEF8093E800812F7E
:20066000DF91CF911F910F91FF90EF900895AF92BF92CF92DF92EF92FF920F931F93CF9383
:20068000DF936C017B018B01040F151FEB015E01AE18BF08C017D10759F06991D601ED910D
:2006A000FC910190F081E02DC6010995892B79F7C501DF91CF911F910F91FF90EF90DF90B2
:2006C000CF90BF90AF9008958091AF0281110BC01092AB0281E08093AC021092AE0210920C
:2006E000AD028093AF028BEA92E00895CF93DF9381E08093D6058093D7058CED95E09093E0
:20070000D9058093D8051092DB051092DA058CE191E09093D3058093D2051092DE0510921E
:20072000DD051092E0051092DF051092E1051092E20581EC8093DC050E946403FC01818150
:200740009091D605482F490F5527551F483051059CF5A281B381109709F522ED35E03383A9
:20076000228320812093D4058093D5058091D705820F80832091D805A22FB091D9058A2F02
:20078000821B8917C8F481813D91C82FD0E0C351DC4F38838F5F8183F2CFD90118962D91F6
:2007A0003C91199721153105C1F722ED35E019963C932E931897D5CFDF91CF9108950F93D3
:2007C0001F93CF93DF931F92CDB7DEB719820E946403DC0112960D911C910115110589F0B0
:2007E000D801ED91FC910280F381E02DBE016F5F7F4FC801099597FD04C0F80100851185E4
:20080000ECCF89810F90DF91CF911F910F910895FC01538D448D252F30E0842F90E0821BE5
:20082000930B541710F0CF96089501970895FC01918D828D981761F0A28DAE0FBF2FB11DA6
:200840005D968C91928D9F5F9F73928F90E008958FEF9FEF0895FC01918D828D981731F088
:20086000828DE80FF11D858D90E008958FEF9FEF0895FC01918D228D892F90E0805C9F4FE0
:20088000821B91098F739927089585EE94E00E94390421E0892B09F420E0822F089580E09C
:2008A00090E0892B29F00E94450481110C9400000895FC01A48DA80FB92FB11DA35ABF4F9B
:2008C0002C91848D90E001968F739927848FA689B7892C93A089B1898C9182748C93938D8B
:2008E000848D981306C00288F389E02D80818F7D80830895EF92FF920F931F93CF93DF937C
:20090000EC0181E0888F9B8D8C8D981319C0E889F989808185FF14C09FB7F894EE89FF8980
:200920006083E889F9898081827480839FBF81E090E0DF91CF911F910F91FF90EF900895ED
:20094000F62E0B8D10E00F5F1F4F0F731127E02E8C8D8E110CC00FB607FCFACFE889F9893F
:20096000808185FFF5CFCE010E945904F1CFEB8DEC0FFD2FF11DE35AFF4FF0829FB7F89414
:200980000B8FEA89FB8980818062CFCFCF93DF93EC01888D8823B9F0AA89BB89E889F989B1
:2009A0008C9185FD03C0808186FD0DC00FB607FCF7CF8C9185FFF2CF808185FFEDCFCE0184
:2009C0000E945904E9CFDF91CF910895BF92CF92DF92EF92FF920F931F93CF93DF93FC0199
:2009E0004281FB01248135814217130609F04CC0EC0181819081913AB1F4813051F4468139
:200A00005781BE016F5E7F4F80E00E94CF0281E03CC0833021F48F858093F100F8CF82301B
:200A200099F58889F9CF913279F58B3029F48281823050F58F87EBCF8A3019F48381888B9E
:200A4000E6CF893009F5C680D780860161969BEFB92E01151105D9F27801013411051CF0D7
:200A600080E4E82EF12C8091E80082FFFCCFC601801B910B6E2D8C0F9D1F0E94F502B092CF
:200A8000E8000E191F09E5CF80E0DF91CF911F910F91FF90EF90DF90CF90BF900895DC0146
:200AA000FB0188E4808389E4818384E482831D969C911D979F709F5B93831D968D919C913C
:200AC00024E0969587952A95E1F78F708F5B848385E00895EF92FF920F931F93CF93DF9308
:200AE000FB0120812138E1F5DC0112964C912481358142171306A1F52381213269F449E0E8
:200B000050E06AE871E080E8DF91CF911F910F91FF90EF900C94CF02223211F5EC010B8524
:200B20001C85F12CE12C0115110589F0F801448155816281738180E80E94CF028F3F980792
:200B400041F0E80EF91ED8010D911C91ECCF1F86C701DF91CF911F910F91FF90EF90089540
:200B600090E080E0F6CFCF93DF93CDB7DEB769970FB6F894DEBF0FBECDBFFC01DB019C91A6
:200B80009F5F9C9331E1AE014D5F5F4FDA01832F1D928A95E9F729E0298384E08A8391E03B
:200BA0009D8383E08E839F8342E048872A8721E22B873C879D872E879F8722E2288B25E4A6
:200BC000298B27E02B8B25E02C8B8E8B28E030E0388F2F8B998F82818B83838180688D8BF9
:200BE00049E150E0BE016F5F7F4F80E00E94CF0269960FB6F894DEBF0FBECDBFDF91CF9157
:200C00000895CF93DF93EC018A819B81DC01ED91FC910480F581E02D6A8509958A8581340F
:200C200039F4EA81FB81EA58FF4F8081846080831A861B861C861D861E861F86188A80E057
:200C4000DF91CF91089581E0693009F080E00895FC01828508950F931F93CF93DF93FC0171
:200C60008B01EA0180819181892B61F4E0E7F1E0849131968111FCCF80E0DF91CF911F9130
:200C80000F9108959281992319F128813981232B99F3D8012D913C91D9014C918381682F4B
:200CA000691B770B80819181860F971FDC014C938281815082838881998101979983888359
:200CC000D8018D919C91119701968D939C93DACF8381828381E0D1CF640F751F46175707ED
:200CE00081F0FC0122813381FA01A191AF01FC01E20FF31FA4832F5F3F4FFC0133832283B7
:200D0000EDCF08953F924F925F926F927F928F929F92AF92BF92CF92DF92EF92FF920F935B
:200D20001F93CF93DF9300D000D0CDB7DEB76C017A8369835C834B8384E0482E360182E1FD
:200D4000680E711C93E0392E5601A7E0AA0EB11C12E0552453944601B0E18B0E911C298139
:200D60003A812115310509F4CBC0F60180A18230F1F0A8F5882309F457C0813091F7AE01D5
:200D80004F5F5F4FBE016D5F7F4FC5010E942B06882309F4B5C0D6011596ED91FC911697AE
:200DA000808191968C939197818192968C93F6017682658230A2D60192968C9192978430DA
:200DC00011F493961C92F60181A18250848325813681308727838287818740A205C083301C
:200DE00051F3843009F0BDCFD60192968C919297843019F1853009F44CC0823009F073C0D7
:200E0000AE014F5F5F4FBE016D5F7F4FC5010E942B06882309F474C0F601858984A3F601D6
:200E20009682858210A29BCF148385819681908787831287118750A2A2CFAE014F5F5F4F03
:200E4000BE016D5F7F4FC5010E942B06882309F457C0D60155968C915597833001F798963D
:200E60008C9198978111DBCF93965C92939752968C91529796968C93969753968C91539753
:200E800097968C93979757968C91579795968C93C6CFAE014F5F5F4FBE016D5F7F4FC501D7
:200EA0000E942B06882361F1F60183A1882309F4B6CF82819381009709F4B1CFDC01ED9194
:200EC000FC910190F081E02D7401D60195960C91959797962C91979796964C9196979496BE
:200EE0006C9109959CCFF60185858823F9F0813041F1D6011E968D919C91892B09F48FCF8F
:200F00000F900F900F900F90DF91CF911F910F91FF90EF90DF90CF90BF90AF909F908F907D
:200F20007F906F905F904F903F90089591968C9191978250990B1F969C938E931E971D961A
:200F40005C9229813A818B819C81782F692FF601468557854115510581F001962115310518
:200F600039F0415051095787468721503109EDCF7B836C831A821982BCCF9C838B833A83B2
:200F800029831586B6CFCF93DF93EC018C819D81DC01ED91FC910480F581E02D6E8109951D
:200FA00081E08E8F1E821F8E18A219A21AA21CA28FEF9FEF9093A9028093A8021092A70295
:200FC00080E0DF91CF910895FC01DC01A65ABF4F8C918823A1F08781681741F0828521E043
:200FE00030E0681729F090E080E0089530E020E0C901880F991F820F931FE80FF91F80855C
:2010000091850895FC018781811104C080859185892B59F08285811106C08385948521E029
:2010200030E0892B21F080E0089530E020E0C901880F991F820F931FE80FF91F67835187A1
:20104000408781E008950895DF92EF92FF920F931F93CF93DF93EC0185E0E62EF12CFE0101
:20106000869FE00DF11D1124908596FF24C0192F177001E085E0D82E8FEF800F8F3008F0AE
:2010800001E0602F70E0062FD69EF001D79EF00D1124EC0FFD1F80858695869586958770EB
:2010A000181701F16F5F7F4F603168F38D81811302C011501D8385E08E9DF0018F9DF00D78
:2010C0001124EC0FFD1F108681E0818712862296D783C683DF91CF911F910F91FF90EF90A4
:2010E000DF900895CE010E942408C6CFFC0120812EBD9B012150310941F051810DB407FE19
:20110000FDCF4EB55EBD4193F5CF61507109860F971F0DB407FEFDCF2EB5FC012083089525
:20112000FC0121E0613499F49C01255B3F4F61E0AC014E5F5F4F15866687178654874387D1
:2011400035962E173F07B9F7FC01158208953585631729F02F5F35962031C9F70895622F73
:201160000C942408CF93DF93FC0167FD12C0283080F4442319F08581873059F0EF01A1E0E9
:20118000B0E08D85882349F111962596A031B105C1F780E018C085E08A9FE0018B9FD00D79
:2011A0001124CE0FDF1F442389F081E4888785818F5F858325E02A9FC0012B9F900D1124A4
:2011C000E80FF91F8085DF91CF91089581E08887F1CF2770687B622B0FC06623E1F2677055
:2011E000660F660F660F4423A1F3606485818F5F85838770687F682B25E02A9FC0012B9F0B
:20120000900D1124E80FF91F6087862FDCCFFC0121E0611102C0069608953585631739F0DE
:201220002F5F35962031C9F790E080E00895069635E0239F800D911D112408950F931F9303
:20124000CF93DF932115310599F0E901042F162F0E940709FC0186ED309729F01283D18378
:20126000C083038380E0DF91CF911F910F91089588EDF9CF2E9808952E9A08954F925F92B1
:201280006F927F928F929F92AF92BF92CF92DF92EF92FF927C01F62FE72F9A01862F972FA6
:2012A00068E070E00E94B230A82F4F2F5E2F57FF02C0495F5F4F63E0559547956A95E1F7E2
:2012C000F701E40FF51F50E040E0412C512C32016F01CE18DF0880E4C816D104ACF481909D
:2012E000912CB12CA12C042E04C0880C991CAA1CBB1C0A94D2F7482859286A287B28485F77
:201300005F4F4032510521F77301620104C0F694E794D794C794AA95D2F78FEF9FEFDC01E8
:201320002032310559F081E090E0022E02C0880F991F0A94E2F70197B0E0A0E0BC01CD0120
:201340006C217D218E219F21A90141505109CC24C394D12C02C0CC0CDD1C4A95E2F70D2C96
:20136000000CEE08FF08C622D722E822F922CD28CE28CF2871F0CC24CA94DC2C02C0CC0C2B
:20138000DD1C2A95E2F7F12CE12C6C297D298E299F29FF90EF90DF90CF90BF90AF909F903F
:2013A0008F907F906F905F904F900895FF920F931F93CF93DF938091A702882309F441C079
:2013C0008091990290919A02009729F0F801208128171906B1F5C091A102D091A202F090DD
:2013E000A3022097A1F5F11032C04091A602411101C048E050E06091A4027091A50261156F
:20140000710511F468E270E0C8010E943E096093960280919B0290919C0223E096958795C3
:201420002A95E1F7080F191FF80180818093970287E0E2E9F2E0A2EDB3E001900D928A95AB
:20144000E1F7DF91CF911F910F91FF9008954F2D50E0BE01C8010E943E09709393026093C0
:201460009202CD2B19F4FF2009F4BFCF4091A00250E060919E0270919F02C8010E943E09A1
:201480007093950260939402B0CFFC01208141E050E02D3219F401964FEF5FEFFC0130E01F
:2014A00020E0AAE0819190ED980F9A3068F4A29FB001A39F700D1124082E000C990BC09723
:2014C0009C01260F371FEECF249FC001259F900D349F900D112408950895EF92FF920F93AF
:2014E000FC01368D323018F0348D361302C00E940C210F91FF90EF900895EF92FF920F9328
:2015000002970E946D0A0F91FF90EF9008950895EF92FF920F931F93422F202F8701DC01A6
:20152000ED91FC9100A0F1A1E02D09951F910F91FF90EF90089581E00895FC0184A108950B
:20154000FC018681089580E0089581E0089580E0089580E00895089580E0089508950F931C
:201560001F93CF93DF93D82FC62F8A0180E591E00E9478010E943A09D260DEBDF8018C2F07
:20158000882339F00DB407FEFDCF91919EBD8150F7CFC00FD12FD11D0DB407FEFDCF0E94E0
:2015A0003C09CE01DF91CF911F910F9108950F931F93CF93DF9300D0CDB7DEB7182F062FCD
:2015C00080E591E00E9478010E943A09126019830A8362E070E0CE0101960E9476080E94E0
:2015E0003C090F900F90DF91CF911F910F9108959F92AF92BF92CF92DF92EF92FF920F9362
:201600001F93CF93DF936C01C42FD22F99249394E62EF12CEE0CFF1CE80EF91E86E5E80E4B
:20162000F11CA42EB12CABE2AA0EB11CAA0CBB1CAC0CBD1CF70180819181DC01ED91FC91CB
:201640000280F381E02D202F4D2F6C2F0995182F803EC9F5C1112BC061E088EE0E94D70AC9
:2016600066E670E080E090E00E94BF01F70180819181DC01ED91FC910190F081E02D202F4B
:201680004D2F6C2F0995182F8D30D1F58FEF890D8330F8F0C11137C061E088EE0E94D70A19
:2016A00066E670E080E090E00E94BF011CC0F50180819181DC01ED91FC910284F385E02D84
:2016C0006D2F0995D3CF8D3061F48FEF890D833050F464E670E080E090E00E94BF0193941E
:2016E000A9CF882319F2812FDF91CF911F910F91FF90EF90DF90CF90BF90AF909F900895B6
:20170000882389F3C7CF8C2F90E08B96880F991F8C0D9D1DFC0180819181DC01ED91FC9126
:201720000284F385E02D6D2F0995DDCF8EBD00000DB407FEFDCF8EB50895CF93C82F80E53D
:2017400091E00E9478010E943A098C2F0E94960B80E00E94960BC82F0E943C098C2FCF917E
:2017600008958F929F92AF92BF92CF92DF92EF92FF920F931F93CF93DF93882E962E5A0107
:201780000E9495026B017C0128E8C20E23E1D21EE11CF11C10E000E0D0E0C0E098280E94C7
:2017A00095026C197D098E099F0997FF1EC0692D80EF0E94D70A0E9495026C197D098E0971
:2017C0009F0997FF09C088EC0E949D0B87FFF3CF60E888EC0E94D70A88EF0E949D0BC82F05
:2017E000CF70C43081F0CE30B9F08C2FDF91CF911F910F91FF90EF90DF90CF90BF90AF9059
:201800009F908F9008950F5F1F4FA114B10439F20A151B0521F6E9CFDF5FD33009F0BFCF96
:20182000E4CFAF92BF92CF92DF92EF92FF920F931F93CF93DF93EC01B62EA42E69010E94A8
:2018400007097C0186EDE114F10409F447C0D701ED91FC91119787ED309709F43FC013962F
:201860009C9180E0981731F02081A21629F033968F5FF8CFF0E0E0E0D601ED93FC938BED2D
:20188000309761F1228126952695203108F02FE081E090E0A0E0B0E004C0880F991FAA1F01
:2018A000BB1F2A95D2F70197F801918380836B2D80EE0E94D70A88ED0E949D0BD701149654
:2018C0009C91682F697F992329F0CA58DF4F68816260682B88ED0E94D70A80E0DF91CF91D1
:2018E0001F910F91FF90EF90DF90CF90BF90AF90089588EF0E949D0B807C8034B1F018F473
:20190000882301F10895803819F0803CC9F0089588ED0E949D0B81FD0DC069EC88ED0E9444
:20192000D70A82E08093E903089588ED0E949D0B81FDF3CF6BEC88ED0E94D70A83E0F2CF56
:2019400081E0F0CF61ED88ED0E94D70A1092E90308950F931F93CF93DF93EC0188819981BE
:20196000009759F02A813B812617370730F081E0DF91CF911F910F9108958B016F5F7F4F3F
:201980000E940F36009759F0998388831B830A832C813D81232B59F7FC011082E8CF80E07F
:2019A000E7CFDF92EF92FF920F931F93CF93DF937C018B01C2E8D5E08E8190E001962FE039
:2019C000D22ED89EB001D99E700D11248C819D810E940F369D838C832E814CE050E0B701B3
:2019E0002D9D800D911D11240E9425378E81EC81FD818D9DE00DF11D1124168705878F5F44
:201A00008E83DF91CF911F910F91FF90EF90DF900895FC0101900020E9F73197AF01481B12
:201A2000590BBC0185EE94E00C943703CF92DF92EF92FF920F931F93CF93DF93CDB7DEB79F
:201A4000A1970FB6F894DEBF0FBECDBF9C01990F440B550B57FF36C0509540953095219592
:201A60003F4F4F4F5F4F19A28E010F5D1F4F9AE0C92ED12CE12CF12CCA01B901A70196010C
:201A80000E948130605DF80162938F01211531054105510589F780E090E00115110519F02B
:201AA000C8010E94090DA1960FB6F894DEBF0FBECDBFDF91CF911F910F91FF90EF90DF908A
:201AC000CF90089519A28E010F5D1F4F8AE0C82ED12CE12CF12CCA01B901A70196010E94F9
:201AE0008130605DF80162938F01211531054105510589F7D0CF2F923F924F925F926F926E
:201B00007F928F929F92AF92BF92CF92DF92EF92FF920F931F93CF93DF937B013A016901A3
:201B2000F901A080B180FB013180F90111821082FB01828160E181FD60E288EE0E94D70A95
:201B40002A2CA301F701608180E00E94B10B582EF6E08F17B1F3811150C088EC0E949D0BEE
:201B600082FF5FC080E30E949D0B482E8A151B0411F008F0422CF60180819181E501C81BAA
:201B8000D90BD7FF02C0D0E0C0E0842C912C8C169D060CF4E40180E591E00E9478010E944F
:201BA0003A0988E00E94960BAE0170E060E0C8010E94F536209721F0BE01C8010E947608F2
:201BC0000C0F1D1F0E943C0964E088EC0E94D70AF60180819181880E991E918280824314C9
:201BE00020F08A149B0408F4ACCF88EF0E949D0BF701928184FB91F99283852DDF91CF91B5
:201C00001F910F91FF90EF90DF90CF90BF90AF909F908F907F906F905F904F903F902F9052
:201C2000089580EF582EE9CF2F923F924F925F926F927F928F929F92AF92BF92CF92DF922E
:201C4000EF92FF920F931F93CF93DF93CDB7DEB765970FB6F894DEBF0FBECDBF3C01342E4F
:201C6000222E402EED8AEAA4FBA4188A1F861E861D868E01035F1F4F9E01215F3F4F40E048
:201C80000E94110C582E811113C139822A824B822D892C83DE82CD82B886AF82AE014F5F85
:201CA0005F4F68E080E20E94AF0A4D855E8560E080E10E94B10B811119C1E114F10409F46A
:201CC00042C00F851889D80112968C91129737FE40C0826012968C936501C114D10409F49B
:201CE0000AC19C868B864D855E856F85788987019E01255F3F4FC3010E947B0D582EB6E0F9
:201D00008B1759F38111D4C0ECA5FDA53097A1F06B857C850190F081E02D0190F081E02D15
:201D2000C5018C199D099A8789879E01275F3F4FA7018CA59DA509958B859C85C81AD90AFF
:201D40008815990550F64D855E8537FECBC080EACAC0816012968C93129711966C908FEF27
:201D6000860D803408F0C4C02D843E840E9495029B01AC0128573C4E4F4F5F4F298B3A8BDD
:201D80004B8B5C8BD80112968C9160E880FF60E488EE0E94D70A512C712C8114910409F4A3
:201DA00076C053018614970408F45401AD8AA7016A2D80E10E94AF0A6A2D88E30E94D70A5C
:201DC000F8016081606280EF0E94D70A88EC0E949D0B87FFFBCF60E888EC0E94D70A88EFB1
:201DE0000E949D0B8F70582E412CD12CC12C552019F10E94950229893A894B895C89621B5A
:201E0000730B840B950B97FF17C036E05316E9F04EE05416B1F054E0551209C08FEFC81A53
:201E2000D80A2114310489F02C143D0471F460E088E30E94D70A2DC08A189B08EA0CFB1C8A
:201E4000ACCF439493E0491691F360E088E30E94D70AD7016C9180E10E94D70A6D8988E392
:201E60000E94D70AF8016081606280EF0E94D70A88EC0E949D0B87FFFBCF60E888EC0E94E5
:201E8000D70A88EF0E949D0B8F70582EB0CF5110CECF88EF0E949D0BD80112969C91129786
:201EA00085FB90F912969C934D855E855520D1F0852D65960FB6F894DEBF0FBECDBFDF91F3
:201EC000CF911F910F91FF90EF90DF90CF90BF90AF909F908F907F906F905F904F903F90EF
:201EE0002F90089580E860E00E94B10B582EE0CF8AED582EDDCF4D855E85552009F427CF85
:201F0000D7CF8F929F92AF92BF92CF92DF92EF920F93CF931F921F921F921F92912C812CB2
:201F2000B12CA12CD12CC12CE12C062F25E040E060E00E94140EC82F6CE271E080E090E03C
:201F40000E94BF010F900F900F900F908C2FCF910F91EF90DF90CF90BF90AF909F908F90BF
:201F600008958F929F92AF92BF92CF92DF92EF920F931F921F923F932F934A015A01D12C52
:201F8000C12CEE24E39400E026E040E80E94140E0F900F900F900F900F91EF90DF90CF9090
:201FA000BF90AF909F908F9008952F923F924F925F926F927F928F929F92AF92BF92CF92ED
:201FC000DF92EF92FF920F931F93CF93DF93CDB7DEB767970FB6F894DEBF0FBECDBF1B8A53
:201FE00038E03C8B3CE33D8B8A3F3FEF9307D9F406ED802F67960FB6F894DEBF0FBECDBFD7
:20200000DF91CF911F910F91FF90EF90DF90CF90BF90AF909F908F907F906F905F904F900C
:202020003F902F900895122F342E462E7C01DC011696CD90DC901797CE01439617969C935D
:202040008E9316971A962C939E012F5F3F4F42E150E060E0C7010E94B10F582EF701D782F4
:20206000C682082F8111C5CF89849A846B847C84FD81FE8B3E813F8B670186E5C80ED11C7B
:202080005601212CD5018D919C910097F1F52394B2E0AB0EB11CE0E12E12F4CFF601808173
:2020A0009181009709F070C05394F2E0CF0ED11C30E15312F3CFF7018681978107ED892BD4
:2020C00009F497CF1287232D40E0642DC7010E94B208D82E04ED882309F48BCF682FC70187
:2020E0000E940709009709F483CFDC0114961C936D2DC7010E94810F082F882309F479CF57
:202100006D2DC7010E94900874CFDC01ED91FC910084F185E02D09958111B9CFF501808142
:202120009181DC01ED91FC910088F189E02D6F890995882309F4ABCFF50180819181DC01F8
:20214000ED91FC910484F585E02DA301B4010995882361F0012F232D442D622DC7010E9488
:20216000F80A082F813D09F492CF43CFF50180819181DC01ED91FC910684F785E02D6E89FD
:2021800009958111E7CF83CFDC01ED91FC910084F185E02D0995811187CFF6018081918188
:2021A000DC01ED91FC910088F189E02D6F89099581110DC0012F232D442D652DC7010E9446
:2021C000F80A082F877F813D09F013CF6DCFF60180819181DC01ED91FC910484F585E02DEA
:2021E000A301B401099581115FCFF60180819181DC01ED91FC910684F785E02D6E8909958E
:202200008823C1F251CF8F929F92AF92BF92CF92DF92EF920F931F931F921F921F930F93FF
:202220004A015A01D12CC12C32E0E32E022F26E040E80E94140E0F900F900F900F901F919C
:202240000F91EF90DF90CF90BF90AF909F908F9008958F929F92AF92BF92CF92DF92EF92E1
:202260000F93C42ED12C1F921F921F921F92912C812CB12CA12CE12C062F21E043E2FC0190
:202280006285828193810E94140E0F900F900F900F900F91EF90DF90CF90BF90AF909F9056
:2022A0008F9008958F929F92AF92BF92CF92DF92EF920F93C62ED12C1F921F925F934F9362
:2022C00024E0822E912C34E0A32EB12CE12C00E020E043EAFC016285828193810E94140EF2
:2022E0000F900F900F900F900F91EF90DF90CF90BF90AF909F908F9008958F929F92AF9269
:20230000BF92CF92DF92EF920F93C42ED12C1F921F921F921F92912C812CB12CA12CE12CA3
:20232000062F23E043E2FC016285828193810E94140E0F900F900F900F900F91EF90DF9077
:20234000CF90BF90AF909F908F900895CF92DF92EF92FF921F93CF93DF93EC01162F7A018E
:20236000FA0180819181A281B3818130F3E09F07F1E0AF07B105C9F170F48115E1E09E0777
:20238000AE07B10509F450C081309140A140B10561F180E041C0833021E0920720E1A20702
:2023A000B10529F083309340A041B10591F7412F64E1CE010E942911412F60E1CE010E9427
:2023C000291164E170E080E090E00E94BF016A85F7012181269521706770412F8A819B81B9
:2023E0000E94D50F1092AA02D4CF8091AA028111D0CF412F61E1CE010E942911412F60E16A
:20240000CE010E942911412F64E0CE010E947D1181E08093AA0281EBDF91CF911F91FF90C3
:20242000EF90DF90CF900895462F61E1CE010E942911412F60E1CE010E9429111092AA02A6
:202440008A8587701770880F880F880F182B09F4A0CFEA80FB806701F6E5CF0ED11CD0E0D9
:20246000C0E0D6018D919D916D010097C1F0DC01ED91FC910084F185E02D099518130FC05C
:20248000AB96CC0FDD1FCE0DDF1D88819981DC01ED91FC910480F581E02D09957ACF21969D
:2024A000C031D105F1F675CFCF92DF92FF920F931F93CF93DF9300D000D0CDB7DEB78C0159
:2024C000F62E19821A821B821C82462F61E10E9429114F2D60E1C8010E9429114F2D64E0B1
:2024E000C8010E947D1183E0C82ED12CAE014F5F5F4F6F2DC8010E945211811114C08981A8
:202500009A81AB81BC819D7F83309140A041B10551F064E670E080E090E00E94BF0181E092
:20252000C81AD10819F74F2D64E1C8010E9429114F2D60E1C8010E94291164E170E080E013
:2025400090E00E94BF010F900F900F900F90DF91CF911F910F91FF90DF90CF9008952F9252
:202560003F924F925F926F927F928F929F92AF92BF92CF92DF92EF92FF920F931F93CF9328
:20258000DF93CDB7DEB7E8970FB6F894DEBF0FBECDBFDC011A963C91311125C1922E242E56
:2025A000362E3C01FC01E280F380D701ED91FC910190F081E02D60E0C70109958C010097EC
:2025C00009F414C1FC01C080D180C114D10409F410C15301F4E0AF0EB11CDC011196BC929F
:2025E000AE9214969C92FE0131962F019F0148E050E060E0D30112968D919C910E94B10F6C
:20260000982EF80114828111FAC08D8191ED992E893059F58980D701ED91FC910280F381DD
:20262000E02D222D41E0632DC7010995F3018287882309F4E1C098859583682F82819381FE
:202640000E94810F982ED801CD92DC92882339F1D701ED91FC910480F581E02DD3011A9699
:202660006C91C7010995F3011286892DE8960FB6F894DEBF0FBECDBFDF91CF911F910F91D0
:20268000FF90EF90DF90CF90BF90AF909F908F907F906F905F904F903F902F9008958110EA
:2026A00082C0950142E0F3016285828193810E941E09982E8111D9CF1F921F925F924F9231
:2026C00058E0852E912C68E0A62EB12CD12CC12C79E2E72E00E026E040EAF3016285828111
:2026E00093810E94140E982E0F900F900F900F908111BBCF8B81D3011B968C931B978201BF
:2027000020E048E050E01A966C911A9712968D919C910E940311982E8111A7CF4B815C81E3
:2027200020E0F3016285828193810E940311982E81119BCF498150E08E010F5D1F4F20E0CC
:20274000D3011A966C911A9712968D919C910E940311982E811189CF1F921F921F921F922A
:20276000912C812CB12CA12CE12C0E8129E040E0F3016285828193810E94140E982E0F9065
:202780000F900F900F90811170CF11E0D3011B968C911B978117D0F0412F68E0C3010E94D0
:2027A0007D111F5FF3CF482D413208F040E250E09201D3011A966C911A9712968D919C9161
:2027C0000E94B10F982E811150CF6BCF1296ED91FC911397EA58FF4F80818460808381E0B0
:2027E00050968C9342CF49ED942E3FCF36ED932E3CCF27ED922E39CF84ED982E36CFD18263
:20280000C08233CF2F923F924F925F926F927F928F929F92AF92BF92CF92DF92EF92FF9236
:202820000F931F93CF93DF93CDB7DEB7C859D1400FB6F894DEBF0FBECDBF1092A702EFEFB5
:20284000FFEFF093A902E093A802DC011496AD90BC90A4E0B1E0FE0131968D0111920150D2
:202860001040E1F7E6E1F1E0FA83E983DC0116963C9119ED311111C0E22E842E962E2C018D
:20288000D501ED91FC910190F081E02D60E0C50109956C010097E1F416ED812FC856DE4FCD
:2028A0000FB6F894DEBF0FBECDBFDF91CF911F910F91FF90EF90DF90CF90BF90AF909F9018
:2028C0008F907F906F905F904F903F902F900895FC01008111810115110509F4D3C41201EF
:2028E000F5E22F0E311CDC0111963C922E921496EC929E0122593E4F48E050E060E0F2010B
:20290000848195810E94B10FF82E8111BDC4C259DE4FF880CE56D140D6010D931C93D50110
:20292000ED91FC910280F381E02D282D40E0692DC5010995F201868314ED882309F4ADCFF9
:20294000CB58DE4F9881C557D14096A3682F848195810E94810F182FD501ED91FC91D601C5
:2029600014961C92882359F00480F581E02DD20116966C91C5010995F20116828ECF0190AB
:20298000F081E02DD20116966C91C5010995009709F482CFFC01E482F110CEC0CA58DE4FB3
:2029A00088819981C657D140F201E35AFF4F91838083C858DE4F88819981C857D1403297C8
:2029C00091838083C158DE4FF881CF57D140C957DE4FF883C758D140910141E0D2011696C0
:2029E0006C91169714968D919C910E941E09F82E8111B7C03E01BBEB6B1ABEEF7B0AF201B1
:202A00003296C857DE4FF983E883C858D1408301005F1F4FCE57DE4F19830883C258D14095
:202A20009E012B5F3E4FC058DE4F39832883C058D140C957DE4FB881C758D140FB1609F447
:202A40009CC050E1A52E51E0B52EF301B182A082C857DE4F08811981C858D14013830283FE
:202A600014821186128615861786168610A211A212A210A6CE57DE4F28813981C258D1400E
:202A8000368325833087278334872387D20114960D90BC91A02DCC57DE4FB983A883C45808
:202AA000D140F201F681CA57DE4FF883C658D1408E010B5F1E4F2F2D49E050E06F2FCD011C
:202AC0000E940311811157C0C95FDE4FA880B980C750D1407F926F92CF57DE4F0881C158B2
:202AE000D1400F93C058DE4F1881C058D1401F9330E4832E912CD12CC12C42E0E42E0F2D8E
:202B000026E040E8CA57DE4F6881C658D140CC57DE4F88819981C458D1400E94140E0F901E
:202B20000F900F900F90811126C0D2015E968C91823018F5F3947DCF4F2D433108F042E1BF
:202B400050E09E0122593E4FD20116966C91169714968D919C910E94B10FF82E882309F450
:202B60001DCFD201ED91FC910480F581E02DC20109951F2D92CEF82EF4CFF201468D11EDCA
:202B8000423008F48ACE91016681848195810E941E091F921F921F921F92912C812CB12C07
:202BA000A12CD12CC12CE12CD2015C960C915C9729E040E016966C91169714968D919C9188
:202BC0000E94140E182F0F900F900F900F90811157C3712CF201958D7916E0F5872D90E088
:202BE000FC017296EE0FFF1FEE0FFF1FE40DF51D2081211102C07394EDCFFC01EE0FFF1F27
:202C0000EE0FFF1FE40DF51DEA5BFF4F80818770C82ED12C1F921F921F921F92912C812CEA
:202C2000B12CA12CE12C00E02AE041E2D20116966C91169714968D919C910E94140EF82EC8
:202C40000F900F900F900F908823A9F2B5E08B1791F287CF1092A5021092A4021092A202CB
:202C60001092A10210929F0210929E0210929C0210929B021092A6021092A3021092A00236
:202C800010929D02D12CC12CC91608F05CC196012F5F3F4FF601EE0FFF1FEE0FFF1FE40D44
:202CA000F51DEA5BFF4F80818295869586958370823009F046C10C2C000CDD08D092A90246
:202CC000C092A80264EF71E080E090E00E94BF01FE013196C058DE4FF983E883C058D14007
:202CE000FF93EF933E01FBEF6F1AFEEF7F0A7F926F92F0E48F2E912CA0E8AA2EB12CB2E267
:202D0000EB2E00E026E041E8D20116966C91169714968D919C910E94140EEB80FC8064E678
:202D200070E080E090E00E94BF01F701FF27CC57DE4FF983E883C458D140F091A402C15750
:202D4000DE4FF883CF58D140A090A502C057DE4FA882C059D140B090A602C657DE4FB882B8
:202D6000CA58D14030909E02E0909F02D090A0020091A102CF56DE4F0883C159D1402091C0
:202D8000A202CE56DE4F2883C259D1403091A302C257DE4F3883CE58D14040919902C9563E
:202DA000DE4F4883C759D14050919A02C856DE4F5883C859D140C0909D0260919B02CB5677
:202DC000DE4F6883C559D14070919C02CA56DE4F7883C659D1400F900F900F900F9080E0B9
:202DE000F12C90E0C357DE4F1882CD58D14070E060E0B0E0A0E0212CC557DE4F19821882C4
:202E0000CB58D140CD56DE4F1882C359D140CC56DE4F1882C459D140C857DE4F19821882CF
:202E2000C858D140CC57DE4FE881F981C458D1406E177F0708F0CFC13B01FFEF6F1A7F0A32
:202E400025E030E02C0F3D1F260F371FF9010081F02FF370CA57DE4FF883C658D140202FF7
:202E600030E03595279535952795422F4370CE57DE4F4883C258D14002950F70F33031F46C
:202E800054E0CA57DE4F5883C658D140FB01359661E070E06C0F7D1F6E0F7F1FC058DE4FD7
:202EA00079836883C058D140C957DE4F1882C758D14030E020E040E050E0BA01CA57DE4F82
:202EC000E881C658D140C957DE4FF881C758D140EF1709F440C0CC57DE4FA880B980C45894
:202EE000D140A614B70489F1EFEF6E1A7E0AC058DE4FE881F981C058D1408190C058DE4F3D
:202F0000F983E883C058D140912CB12CA12C022E04C0880C991CAA1CBB1C0A94D2F7482988
:202F200059296A297B29C957DE4FF881C758D140FF5FC957DE4FF883C758D140285F3F4F77
:202F4000BDCF6901A1CEC12CB6CECC57DE4F68807980C458D140CE57DE4F2881C258D14017
:202F6000213009F4FDC090F0223009F0F7C0013009F424C108F410C1023009F0EFC0C557EE
:202F8000DE4F59834883CB58D140E8C0083009F0E5C0222039F1CD56DE4F2881C359D14019
:202FA000CC56DE4F3881C459D140C557DE4FE881F981CB58D140E217F307A0F0843178F4D7
:202FC000E82FF0E0EE0FFF1F65E0A62EBB24B394AC0EBD1EEA0DFB1D318320838F5F2F5F39
:202FE0003F4FE3CF811107C09F9DA00DB11D1124F12C90E0B2C0F81608F48F2D9D01C058D1
:20300000DE4F19821882C058D140042F0170C357DE4F4881CD58D140A42EB12C892E912C18
:20302000C058DE4F5881C058D140581708F080C0011116C0C857DE4F68817981C858D1405A
:2030400069307105F1F4C1100BC0C92ECB56DE4F2883C559D140CA56DE4F3883C659D14089
:20306000280D391DC058DE4F48815981C058D1404F5F5F4FC058DE4F59834883C058D14043
:20308000CFCFC857DE4FE881F981C858D140319739F7C058DE4F68817981C058D140660F74
:2030A000771F45E051E04C0F5D1F640F751FFB01608171816033710519F062307105D1F498
:2030C000C956DE4FA882C759D140C856DE4FB882C859D140C257DE4F9883CE58D140CF56D5
:2030E000DE4F2883C159D140CE56DE4F3883C259D140B6CF61337105B9F061307105A1F0C5
:203100006833710509F0ACCFC657DE4F9883CA58D140C157DE4F2883CF58D140C057DE4F26
:203120003883C059D1409CCFD92E322EE32E98CF989FA00DB11D11248F1550F46F2D681B72
:20314000770B969F9001979F300D1124A20FB31FCE57DE4F8881C258D140212CB30162CE45
:20316000073081F048F40111F9CFC857DE4F59834883C858D140F2CF083031F0093071F7B2
:20318000F42EECCF942FEACFC357DE4F4883CD58D140A8E0B0E0E2CF8431F8F6E82FF0E03B
:2031A000EE0FFF1F35E0A32EBB24B394AC0EBD1EEA0DFB1D518340838F5FCFCFCD56DE4FD1
:2031C0004883C359D140CC56DE4F5883C459D14022242394C3CFC157DE4FB880CF58D1405B
:2031E000B092A402C057DE4F0881C059D1400093A502C657DE4F2881CA58D1402093A60235
:2032000030929E02E0929F02D092A002CF56DE4F3881C159D1403093A102CE56DE4F48817F
:20322000C259D1404093A202C257DE4F5881CE58D1405093A302C956DE4F6881C759D140A7
:2032400060939902C856DE4F7881C859D14070939A02CB56DE4F8881C559D14080939B0295
:20326000CA56DE4F9881C659D14090939C02C0929D0281E08093A702D20194968C930DCBF5
:20328000F82E6FCC17ED09CBF6011183008369CCAF92BF92CF92DF92EF92FF920F931F93E8
:2032A000CF93DF9300D000D0CDB7DEB77C01690158011C821B821A8219828E010F5F1F4F64
:2032C0009E012D5F3F4F0E94110C811109C049815A816B817C8185019601C7010E947B0D7E
:2032E0000F900F900F900F90DF91CF911F910F91FF90EF90DF90CF90BF90AF900895CF92CA
:20330000DF92EF92FF920F931F93CF93DF93CDB7DEB72E970FB6F894DEBF0FBECDBFFC01E0
:203320002089211111C010E0812F2E960FB6F894DEBF0FBECDBFDF91CF911F910F91FF9087
:20334000EF90DF90CF9008957C010E949502F7010485158526853785601B710B820B930B29
:2033600097FDE1CF81E090E09E878D878E010F5F1F4F9E01235F3F4F41E0628582819381C6
:203380000E944819182F811121C082E0D82E01E089818D2139F119861A861B861C86AE0114
:2033A000475F5F4F602FC7010E945211C82E811119C0AE01475F5F4F602FC7010E94A61149
:2033C000813B19F0882371F0C82E1C2D0E9495026C597F4F8F4F9F4FF70164877587868759
:2033E0009787A2CFDD0C0F5F083091F601E0F7018385801758F319861A861B861C86AE0134
:20340000475F5F4F602FC7010E945211D82E811117C089859A85877091708130914081F471
:203420008B859C8581609C878B87AE01475F5F4F602FC7010E94A611813B29F0811102C069
:203440000F5FD5CFD82E1D2DC1CF4F925F926F927F928F929F92AF92BF92CF92DF92EF925F
:20346000FF920F931F93CF93DF93CDB7DEB7C254D1090FB6F894DEBF0FBECDBFDC0194963C
:203480002C91222309F4B4C07C010E949502F701878C90A0A1A0B2A0681979098A099B09FB
:2034A00097FDA6C00E9495026F5F7F4F8F4F9F4FD7015F966D937D938D939C939297712C7F
:2034C0006E01B1E4CB0ED11C5701EAE5AE0EB11C50E4852E912CD7015D968C91781608F060
:2034E00087C02091A8023091A9022F3F320709F47DC0872D90E0FC01EE0FFF1FEE0FFF1F86
:20350000EE0DFF1DEA5BFF4F408147704217130609F06CC0FC017296EE0FFF1FEE0FFF1FB7
:20352000EE0DFF1D8081882309F460C0E82FF0E0CF01880F991FDC01AE0FBF1FAE0DBF1D96
:2035400096962C9130E0D6012D933C93DE0111965A2E6B2E1D92AC15BD05E1F7E80FF91F4C
:20356000EE0DFF1D052D162D960145A1F7016681848195810E944819482E811137C0D6016F
:203580008D919C911197009789F18134910510F08D929C92D701ED91FC9100A0F1A1E02D6D
:2035A000052D162DD6012C91D5014C91B701C7010995D701ED91FC910288F389E02DD50165
:2035C0008C9181114980642DC7010995009771F0DC01ED91FC910190F081E02D052D162D18
:2035E000D6012C91D5014C91B7010995739473CF80E0CE5BDF4F0FB6F894DEBF0FBECDBFE7
:20360000DF91CF911F910F91FF90EF90DF90CF90BF90AF909F908F907F906F905F904F90F6
:2036200008953F924F925F926F927F928F929F92AF92BF92CF92DF92EF92FF920F931F931C
:20364000CF93DF93CDB7DEB7C254D1090FB6F894DEBF0FBECDBFDC0194962C91222309F440
:20366000A0C06C010E949502F601878C90A0A1A0B2A0681979098A099B0997FD92C00E94B5
:2036800095026F5F7F4F8F4F9F4FD6015F966D937D938D939C939297312C5E01B1E4AB0ECD
:2036A000B11C4601EAE58E0E911CD6015D968C91381608F076C0E32DF0E07296EE0FFF1F78
:2036C000EE0FFF1FEC0DFD1D6080662009F467C0712C7301EE0CFF1CF701E60DF71DEC0D14
:2036E000FD1D86A190E0F50191838083FE0131962F011192EA15FB05E1F7F701E60DF71D9D
:20370000EC0DFD1D8201950145A1D60116966C91169714968D919C910E944819182F811199
:203720003EC0F501808191810097C9F18134910520F080E490E091838083E60CF71CD6010F
:20374000AE0DBF1DF60180819181FC01608C718C7201F5010081F401208195964C91B601A3
:20376000C601F3010995D601ED91FC910288F389E02DD4018C9181111981612FC6010995E8
:20378000009769F0DC01ED91FC910190F081E02D8201D5012C91D4014C91B601099533945E
:2037A00084CF80E0CE5BDF4F0FB6F894DEBF0FBECDBFDF91CF911F910F91FF90EF90DF901B
:2037C000CF90BF90AF909F908F907F906F905F904F903F90089540ED55E060EC71E090E0F7
:2037E00080E00E94C92E009721F00E94450A8093BA03089540ED55E060EC71E090E080E0FB
:203800000E94C92EFC01892B09F1908180ED890F8A3078F4818181110CC0905321E030E0D4
:2038200001C0220F9A95EAF78091BB03822B8093BB0381E08093C6020E9495026093C2020D
:203840007093C3028093C4029093C502089540ED55E060EC71E090E080E00E94C92E009741
:20386000F1F00E94450A9093B7038093B60340ED55E060EC71E090E080E00E94C92E0097CE
:2038800071F09C01C9012F5F3F4FFC0140814032C9F30E94450A9093B9038093B80308951D
:2038A0000E94CC36CF93DF93EC0188819981009711F00E948635198218821D821C821B827C
:2038C0001A82DF91CF910895EF92FF920F931F93CF93DF93EC01FB01E080F180E114F10401
:2038E00011F10481158101151105A9F08C819D81080F191FB801CE010E94A90C882399F059
:20390000288139818C819D81B701820F931F0E9410371D830C83CE01DF91CF911F910F9117
:20392000FF90EF900895CE010E94521CF4CFEF92FF920F931F93CF93DF93EC017B018A010C
:20394000BA010E94A90C81110BC0CE010E94521CCE01DF91CF911F910F91FF90EF9008957F
:203960001D830C83B701888199810E941037F0CFFB0101900020E9F73197AF01461B570BCD
:203980000C94971CFC0180819181009711F00C9486350895CF93DF93CDB7DEB72C970FB6BF
:2039A000F894DEBF0FBECDBF18861F821A8619861C861B8662EC71E0CE0107960E94B81C43
:2039C0001A8219821C821B821E821D8269EC71E0CE0101960E94B81CBE01695F7F4FCE0190
:2039E00001960E94641CFC01448155816081718185EE94E00E943703CE0101960E94C21CFA
:203A0000CE0107960E94C21C2C960FB6F894DEBF0FBECDBFDF91CF9108950F931F93CF938E
:203A2000C82F40ED55E060EC71E090E080E00E94C92E8C01009759F068E572E00E9407373B
:203A4000892B49F48091CA03C82BC093CA03CF911F910F9108956FEE71E0C8010E940737E0
:203A6000892BA9F7C0958091CA03C823EECF81E00C940D1D82E00C940D1D84E00C940D1D92
:203A800088E00C940D1D80E10C940D1DEF92FF920F931F93CF93DF93CDB7DEB7A2970FB678
:203AA000F894DEBF0FBECDBF7C01162F40ED55E060EC71E090E080E00E94C92EFC01892BA9
:203AC00009F0ABC01E8E1D8E18A21F8E1AA219A262EC71E0CE014D960E94B81C87E0E2ED50
:203AE000F3E0DE011A9601900D928A95E1F78F8581239091BB031923882309F483C081E01E
:203B0000111183E0188E1F8A1A8E198E1C8E1B8E4AE08E010F5F1F4FB80190E00E94F02EB1
:203B2000F80101900020E9F73197AF01401B510BB801CE0147960E94971C1A8219821C823D
:203B40001B821E821D82B701C8010E94B81C1A8A198A1C8A1B8A1E8A1D8A69817A81611556
:203B6000710531F04D815E81CE0141960E94971CED88FE8882E0E80EF11CB701CE01419648
:203B80000E94A90C882309F443C029893A898D899E8961EF71E0820F931F0E941037FE8A1C
:203BA000ED8ABE01695E7F4FCE0141960E94641CBE01635E7F4F0E94641CFC01448155816A
:203BC0006081718185EE94E00E943703CE0141960E94C21CC8010E94C21CCE0147960E9492
:203BE000C21CCE014D960E94C21CA2960FB6F894DEBF0FBECDBFDF91CF911F910F91FF9087
:203C0000EF90089580E0112309F47CCF82E07ACFCE0141960E94521CC4CF8081813349F4C6
:203C200081818111E2CF8091BB03182B1093BB03DCCF8033D1F681818111D7CF10958091B7
:203C4000BB031823F3CF61E084EF91E00C94461D62E08EEF91E00C94461D64E089E092E02F
:203C60000C94461D68E085E192E00C94461D60E180E292E00C94461D1F920F920FB60F924E
:203C800011242F933F938F939F93AF93BF938091E1039091E203A091E303B091E403309178
:203CA000E00323E0230F2D3758F50196A11DB11D2093E0038093E1039093E203A093E3036A
:203CC000B093E4038091E5039091E603A091E703B091E8030196A11DB11D8093E50390932F
:203CE000E603A093E703B093E803BF91AF919F918F913F912F910F900FBE0F901F901895B9
:203D000026E8230F0296A11DB11DD2CF1F920F920FB60F9211248F939F938091E10090914A
:203D2000E100937F9093E10083FF0FC01092E90091E09093EB001092EC0092E39093ED001E
:203D40001092EC0398E09093F00082FF22C093E09093E9009091F200992319F09AE39093ED
:203D6000E8009091EA03992341F09091EA0391509093EA03911101C05D9A9091BB0299236D
:203D800041F09091BB0291509093BB02911101C0289A84FF18C08091E2008E7E81608093E0
:203DA000E2008091E1008F7E8093E1008091EB038E7E80618093EB039F918F910F900FBE85
:203DC0000F901F90189580FFF7CF8091E2008E7E80618093E2008091E1008E7E8093E100DC
:203DE0008091EB038E7E8160E5CF1F920F920FB60F921124EF92FF920F931F932F933F933C
:203E00004F935F936F937F938F939F93AF93BF93EF93FF93CF93DF93CDB7DEB76197DEBF3C
:203E2000CDBF1092E9008091E80083FF20C068E0CE010A960E94F50282EF8093E8001A85B5
:203E400017FF32C00E940203812F807609F057C18B852C853D850D8581113DC0113841F5D9
:203E60001092F1001092F1008EEF8093E80061960FB6F894DEBF0FBECDBFDF91CF91FF9106
:203E8000EF91BF91AF919F918F917F916F915F914F913F912F911F910F91FF90EF900F9055
:203EA0000FBE0F901F9018958EEF8093E800CCCF103829F48091BC028093F100D3CF8E853A
:203EC0008F778093E9008091EB0085FB882780F91092E900F1CF813039F51230C9F4232BC5
:203EE00009F03EC18E858F778093E9009091EB009F7D9093EB0021E030E001C0220F8A955D
:203F0000EAF72093EA001092EA001092E900ACCF111126C12130310509F022C18091BC0256
:203F20008D7F8093BC02A0CF8330E1F4111108C02130310509F014C18091BC028260F1CFFD
:203F4000123009F00DC1232B09F00AC18E858F7709F406C18093E9008091EB00806280937C
:203F6000EB00D3CF853039F40E9402038C8580688093E30079CF863009F086C017FFF0C039
:203F80001A851F71E888F9881092E9001092BA021092B902023099F5111131C01092B8028C
:203FA0001092B7020E94DF031F8299E099830A8322E230E03C832B8391E09E8390EA9887B3
:203FC0008D83809100019091010197FD01969595879589871092E9001092BA021092B902D5
:203FE000F092B802E092B70249E050E0BE016F5F7F4F80E00E94CF020E94DF0335CFF092C9
:20400000B802E092B7020E946403DC011296ED90FC90E114F10409F49DC0D701ED91FC91FD
:204020000480F581E02DBE01665F7F4FC7010995009709F08AC0F701E084F184EACF03302A
:2040400009F08EC011118CC08C858823D1F0823041F462E18DEB91E00E940703811104CF0A
:204060007FC0813009F07CC063E189EA91E0F4CF67E971E0FB01449150E080E80E94CF02B3
:20408000F3CE63E971E0F6CF873009F469C0883041F4103809F064C08091EC038093F100CA
:2040A000E3CE893011F5137009F05AC0EEEEF3E081E031E096E32191222371F08093E9000C
:2040C0003093EB00DF0111972C912093EC009093ED008F5F873079F78EE78093EA00109215
:2040E000EA008C858093EC03BFCE8A3019F41138B9F5B8CE8B30A1F5113091F5B5CE888946
:2041000099891092E9001092BA021092B9029093B8028093B7020E946403DC0112960D9162
:204120001C9101151105E1F0D801ED91FC910190F081E02DBE01665F7F4FC8010995811197
:2041400093CEF80100851185ECCF181619060CF48BCE06C0013009F072CF112309F488CFD0
:2041600081E28093EB0083CE1F920F920FB60F9211242F933F934F935F936F937F938F9302
:204180009F93AF93BF93EF93FF9385EE94E00E945904FF91EF91BF91AF919F918F917F915F
:2041A0006F915F914F913F912F910F900FBE0F901F9018951F920F920FB60F9211242F9389
:2041C0008F939F93EF93FF93E091F504F091F6048081E091FB04F091FC0482FD1BC0908135
:2041E0008091FE048F5F8F732091FF04821741F0E091FE04F0E0EB51FB4F958F8093FE043C
:20420000FF91EF919F918F912F910F900FBE0F901F9018958081F4CF6F927F928F929F92EF
:20422000AF92BF92CF92DF92EF92FF920F931F93CF93DF93EC01842F6C8F4D8D70E060E0DB
:20424000A82EB12C822E912C602E712C641770F56530710559F1DB01AA0FBB1FAA0FBB1FDC
:20426000FE01EA0FFB1FEA5BFF4F9081392F37703A151B0409F087C0392F36953695369502
:2042800037703815190409F07EC092959695969593709615170409F076C06E0196E4C90EA1
:2042A000D11CCA0EDB1EC114D104F9F4453008F05BC0A4E04A9FA00111246E01B6E4CB0EFC
:2042C000D11CC40ED51E2770220F220F220F982F9770292B902F9295990F990F907C292B4A
:2042E000F60120839D8D9F5F9D8FD70113969C911397937010E0933029F412969C9112E0DE
:2043000097FD11E0402F682FE881F981068CF78DE02DCE010995882339F1112329F18E8D61
:204320008B3010F5282F30E0F901EE0FFF1FE20FF31FEC0FFD1FD70112969C9112979F70C2
:2043400095A314969C91149796A394E097A3C10ED11CF601818316968C919BA1981708F455
:204360008BA38E8D8F5F8E8FDF91CF911F910F91FF90EF90DF90CF90BF90AF909F908F9011
:204380007F906F9008956F5F7F4F60CFEF92FF920F9302970E940C210F91FF90EF90089540
:2043A000CF93DF9385EE94E01092E8041092E70448EE53E060E070E04093E9045093EA049D
:2043C0006093EB047093EC0428E231E03093E6042093E5042DEC30E03093F2042093F1041A
:2043E0002CEC30E03093F4042093F30428EC30E03093F6042093F50429EC30E03093F804BF
:204400002093F7042AEC30E03093FA042093F9042EEC30E03093FC042093FB041092FE0414
:204420001092FF04109200051092010510928705109286051092880510928A05109289059D
:2044400029E220938D051092D1051092D0059093830580938205909385058093840567EC3C
:2044600071E08BE895E00E94103710928E051092CF050E94712E29E030E040E050E00E9423
:2044800018306D5F7F4F8F4F9F4F660F771F7093E4046093E30486EA91E090936D04809316
:2044A0006C041092740481E080937504109276048EE694E0909373048093720410926E044A
:2044C00088E080936F048CE38093700410927104ECE6F4E091E02EE634E01586968717864D
:2044E00034872387359684E0E73BF807B1F71092E20481E18093F40320E931E030935C042E
:2045000020935B042CE634E030935E0420935D0410926B0410925F0488E0809360042CE326
:2045200020936104909362048093630484E0809364041092650410926604109267041092BB
:2045400068041092690410926A04A2ECB4E0FD0190E080E021913191232B09F000C1880FCD
:20456000991FFC01EE53FB4F8BE594E0918380838CE694E090930104809300048AE391E0FD
:204580009093FD038093FC038EE591E09093FF038093FE0310921B0410921C0410921D0483
:2045A00010921E0410921F0410922004109256041092030410920504109204041092060406
:2045C00010920804109207041092090410920B0410920A0410920C0410920E0410920D0457
:2045E00010920F0410921104109210041092120410921404109213041092150410921704F6
:2046000010921604E3E4F4E090E080E0EC01CC0FDD1FCC0FDD1FCE5BDB4F28812873288396
:2046200010821182019634968530910579F7CCEFD3E090E080E01DA2582F28E0811120E01B
:204640002EA3BC01660F771F9B01280F391F2D5D3B4FF90140814E7F4D7F40833FE05111EA
:2046600031E0FB01E80FF91FED5DFB4F330F330F20812370232B2083019623968B30910540
:20468000D1F681E080931A04109219041092180490E080E02D913D91232B09F066C0880FE4
:2046A000991FFC01EE53FB4F8CEF93E09183808384E691E09093FD038093FC038AE891E0C2
:2046C0009093FF038093FE0380EB91E09093F8038093F7030E949502685E73407093F603EC
:2046E0006093F5038091F905811113C01092F4051092F30585E592E09093F6058093F5051F
:2047000085E490E09093F8058093F70581E08093F9058091EB05811105C00E94760381E04B
:204720008093EB05E091DD05F091DE05309721F583EF95E09093DE058093DD058091DF050B
:204740009091E0052091F7053091F805820F931F9093E0058093DF05DF91CF9108950196A2
:204760008031910509F0F6CE03CF01968031910509F090CF9DCFFC01808191810097D9F74A
:2047800083EF95E091838083D9CFCF93DF93CDB7DEB7C756D1090FB6F894DEBF0FBECDBF48
:2047A000789484B5826084BD84B5816084BD85B5826085BD85B5816085BD80916E0081601B
:2047C00080936E001092810080918100826080938100809181008160809381008091800095
:2047E000816080938000809191008260809391008091910081608093910080919000816074
:20480000809390008091C10084608093C1008091C10082608093C1008091C100816080931D
:20482000C1008091C30081608093C3008091C00082608093C0008091C20081608093C2001D
:2048400080917A00846080937A0080917A00826080937A0080917A00816080937A00809158
:204860007A00806880937A001092EC031092BC021092EB038091D70081608093D70080EAAB
:204880008093D80089B5806189BD89B5826089BD09B400FEFDCF61E070E080E090E00E94D8
:2048A000BF018091D8008F7C80618093D8008091E000807F8093E0008091E1008E7E809384
:2048C000E1008DE08093E200559A209A84E690E0909301018093000184E690E0A0E0B0E0EF
:2048E0008093E9049093EA04A093EB04B093EC04E091F504F091F60482E08083E091F104A2
:20490000F091F2041082E091F304F091F40480E180831092FD04E091F904F091FA0486E053
:204920008083E091F704F091F804808180618083E091F704F091F804808188608083E09160
:20494000F704F091F804808180688083E091F704F091F80480818F7D8083E0EDF1E026ED49
:2049600031E0C12CD12C7601849140917B00982F990F990F90724F7D942B90937B0087702B
:20498000806480937C0080917A00806480937A0080917A0086FDFCCF40917800509179002C
:2049A000D701C60165E0880F991FAA1FBB1F6A95D1F74601570173E0B694A794979487949D
:2049C0007A95D1F7880D991DAA1DBB1D052E000C660B770B840F951FA61FB71FC826D92615
:2049E000EA26FB2631962E173F0709F0BDCF0E9495022FE530E040E050E00E9481302AE1A4
:204A0000C20ED11CE11CF11C6C0D7D1D8E1D9F1D611571058105910511F00E94C02E10921A
:204A2000010619821B821A821D821C821E828091EB05811105C00E94760381E08093EB05E7
:204A40008091D505BE016F5F7F4F80640E94F101269A0E943C091FB7F8948091BD0281112D
:204A60005AC048E252E0FA01949127E432E0F9018491E92FF0E0EE0FFF1FE75FFD4FA591A9
:204A8000B4919C91892309F037C0EDEEF1E09491F9012491FA018491882309F42DC0992327
:204AA000E9F091509F30D0F4E92FF0E0E65AFA4D0C94C630CD25D1256925C525C9256E25C3
:204AC0006E256E25D425DA25DE25E225E8256E25EC25909180009F7790938000E82FF0E0BC
:204AE000EE0FFF1FE550FE4FA591B4918FB7F8949C91292B2C938FBF81E10E947B018CB57D
:204B000080618CBD8CB580648CBD8FE00E947B0180E10E947B018091BD028F5F8093BD0261
:204B20001FBF209A289A259868E188E80E94D70A60E288E70E94D70A60E088E70E94D70ABC
:204B400010E000E088E60E949D0B0F5F1F4F80FF49C061EC88ED0E94D70A60E680ED0E94CF
:204B6000D70A64E088EE0E94D70A88EE0E949D0B82FFFBCF0E94790C60E288EC0E94D70AAC
:204B800061E080E80E94D70A31C0909180009F7DA3CF90918000977F9FCF94B59F7794BDF4
:204BA0009DCF94B59F7DFBCF909190009F779093900094CF909190009F7DF9CF9091900037
:204BC000977FF5CF9091C0009F779093C00086CF9091C0009F7DF9CF9091C200977F9093EB
:204BE000C2007CCF0F3F100709F0ACCF68EC70E080E090E00E94BF0147EF53E060E08CEFD5
:204C000093E00E940208A9E0B3E0EEE0F0E091E2909357008491282F30E014E035952795D8
:204C20001A95E1F72A3008F089C0205D2C938F708A3008F085C0805D11968C93119712962D
:204C40003196E831F10521F710921C030E94712EEDEDCE2EE3E0DE2EE12CF12CA701960156
:204C60000E941830665F7F4F8F4F9F4F7093C4036093C3030E94712EA70196010E941830FE
:204C8000665F7F4F8F4F9F4F7093C2036093C1030E94712EA70196010E941830665F7F4F39
:204CA0008F4F9F4F7093C0036093BF030E94712EA70196010E941830665F7F4F8F4F9F4FE4
:204CC0007093BE036093BD039E012F5F3F4F2B963FAF2EAF2B971092D3031092D2031092C3
:204CE000D5031092D4031092D6031092B7031092B6031092B9031092B8031092BA0383B1E3
:204D0000182F107285FD0CC088EC0E949D0B85FF03C00E94790C10E2612F88EC0E94D70AD7
:204D20008091E903813009F460C008F462C0823049F0833009F465C0D12C1BC0295A76CF2A
:204D4000895A7ACFD12C8091F403807F803189F40E94950268537F4F8F4F9F4F6093BE02B4
:204D60007093BF028093C0029093C10280E28093F40352ECE52E54E0F52E8701D8018D9121
:204D80009D918D01009739F0DC01ED91FC910680F781E02D0995E2EEF4E0E017F10771F70B
:204DA0008091F403803409F4DAC070F5803209F4C0C0803309F4CDC0813109F043C010927F
:204DC000E204D7018D919D917D01009739F0DC01ED91FC910480F581E02D09950E151F05B7
:204DE00081F782E18093F4032DC083E18093F403A3CF8091F403807F803109F49DCF81E17E
:204E0000F5CFDD24D3949FCF813509F4B7C0803809F4C7C08035B1F488EC0E949D0B86FFF5
:204E200011C081E58093F4030E9495026C5E7F4F8F4F9F4F6093BE027093BF028093C00248
:204E40009093C1020E9495022091C90321114DC00E94B12D1091C6032091C7033091C80386
:204E60006B017C01C01AD10AE20AF30A970186010A30110521053105C0F16093C503709371
:204E8000C6038093C7039093C8038BE292E00E94090D8091C3039091C4030E94160D80ECF7
:204EA00091E00E94090D8091C1039091C2030E94160D80EC91E00E94090D8091BF039091C0
:204EC000C0030E94160D80EC91E00E94090D8091BD039091BE030E94160D8EE192E00E94BA
:204EE000090D81EF91E00E94090D1091C903111168C085EE94E00E943904181619060CF03D
:204F000060C085EE94E00E9417042091C70230E02F5F3F4F2F73332790910803921729F33A
:204F2000E091C702F0E0E853FD4F80832093C702DCCF0E9495020091BE021091BF02209119
:204F4000C0023091C102601B710B820B930B97FD79CF61E088EE0E94D70A80E443CF88EEE7
:204F60000E949D0B80FD6ECF88ED0E949D0B682F686088ED0E94D70A80E534CF0E94950276
:204F80000091BE021091BF022091C0023091C102601B710B820B930B97FD54CF80E8809313
:204FA000F4032D2D40E060E08CE694E00E94D50F882329F0823D09F445CF80EA13CF80E98B
:204FC00011CF9091D7038091D00398139093D00387E0E2EDF3E0A9EDB3E001900D928A95F0
:204FE000E1F78091CA03809589238093DE03112309F442C18091820590918305DC01ED9176
:20500000FC910084F185E02D0995181619060CF072C08091820590918305DC01ED91FC91BA
:205020000284F385E02D0995182F8B3319F380918D05181344C040ED55E06BE272E08EE86D
:2050400095E00E94C92E8C01009739F143E050E06DE272E00E941737892B11F40D5F1F4F7D
:20506000A0908805B12CE0908605F0908705D12CC12CCA14DB04D4F447014CE050E0B701C4
:20508000C8010E941737BFE0EB0EF11C892B51F4D4011D96ED91FC91099510928E051092B1
:2050A000CF05A8CFBFEFCB1ADB0AE3CFE0918905F0918A05309789F3C8010995EECF812F55
:2050C000012E000C990B0E94D336892B09F492CFE091CF05E03408F08DCF81E08E0F809376
:2050E000CF05F0E0EE57FA4F1487E82FF0E0EE57FA4F14867FCF0E9495022091C60222238F
:2051000091F10091C2021091C3022091C4023091C502AB01BC01401B510B620B730B809137
:20512000E3049091E404C296092E000CAA0BBB0B84179507A607B707B0F41092BB03109221
:20514000C6020E94712E29E030E040E050E00E9418306D5F7F4F8F4F9F4F660F771F70937F
:20516000E4046093E3048091DE039091BB03892B8093DE038091DD039091BA03890F80937A
:20518000DD038091D9039091DA032091B6033091B703820F931F9093DA038093D90380911C
:2051A000DB039091DC032091B8033091B903820F931F9093DC038093DB038091DE038983F4
:2051C0004091D9035091DA035B834A832091DB033091DC033D832C839091DD039E83452B89
:2051E00011F5232B01F591111EC09091B503891302C0811134C02091AF03821310C02091AF
:20520000B0033091B103232B51F42091B2033091B303232B21F42091B403222301F1911152
:2052200002C08823E1F08093B50386E0FE013196AFEAB3E001900D928A95E1F78091EB05E5
:20524000811105C00E94760381E08093EB058091D505BE016F5F7F4F80640E94F10180E05A
:2052600090E0892B09F437CD0E944504882309F432CD0E9400002FCD8091AE038823B9F0C3
:205280000E9495020091AA031091AB032091AC033091AD03601B710B820B930B6630710549
:2052A0008105910520F01092AE031092A9039091C70280910803981709F47FCF9091C70237
:2052C0008091080310E0981771F0E0910803F0E0E853FD4F10818091080390E001968F7329
:2052E0009927809308030E9495026093AA037093AB038093AC039093AD03183241F481E0D1
:205300008093AE038093A90310936903D0CFC090AE036496CFAE6497193209F082C4CC2073
:2053200031F2A091A903AF3308F0BDCFE1E0EA0FE093A903B0E0A759BC4F1C93F0E0E759D4
:20534000FC4F108231978081893209F0ACCF0E9495020091F5031091F603012E000C220BB4
:20536000330B601B710B820B930B683E73408105910508F498CF0E9495027093F6036093CD
:20538000F50380916903883271F4A9E6B3E00D900020E9F7AD014A5653406AE673E089E6C7
:2053A00093E00E94E336E9E6F3E001900020E9F732978081893209F41082109268031092C9
:2053C000670339E6A32E33E0B32E0091670310916803043011055CF56CE270E0C5010E94D7
:2053E000FC367C01009711F0FC011082C80124E0880F991F2A95E1F79C01295D3C4F69010C
:205400004FE050E0B501C9010E942537D6011F961C920F5F1F4F1093680300936703E11499
:20542000F10429F05701BFEFAB1ABB0ACECF4090C3035090C403C090C103D090C2036090CB
:20544000BF037090C003E090BD03F090BE036896FFAEEEAE6897ADB6BEB609E013E0D80184
:205460000D900020E9F78D010A501340E9E0F3E030E020E0912C812C201731075CF44191AD
:205480002F5F3F4F4203C001439F900D1124880E991EF2CFC8010196EDB7FEB7E81BF90B68
:2054A0000FB6F894FEBF0FBEEDBF2DB73EB72F5F3F4F7901A80169E073E0C9010E942537E9
:2054C000F701E00FF11F1082C40165EE73E00E94B2304C01F70130E020E020173107ACF4F0
:2054E000C401B8010E94B2302817390739F04081D701A80FB91F8C9180834C932F5F3F4FBF
:205500004DE0840E911C3196E8CF4FE350E0B701CE0101960E94253721961FAE21970FB622
:20552000F894BEBE0FBEADBECE018F5B9F4F2F969FAF8EAF2F97A7E2B3E02D96BFAFAEAFC4
:205540002D97312C212C9601DD0C440B550BA0962CAF3DAF4EAF5FAFA0976301770CEE0892
:20556000FF08A496CCAEDDAEEEAEFFAEA4976201550CEE08FF08A896CCAEDDAEEEAEFFAE14
:20558000A8978091670390916803281639060CF0E5C2EDB6FEB66696FFAEEEAE66972D9649
:2055A000EEADFFAD2D9701900020E9F731979F012D96CEACDFAC2D972C193D093695279549
:2055C000C9010196E81AF90A0FB6F894FEBE0FBEEDBEEDB7FEB731968F01DF01A20FB31FCD
:2055E0001C925F017601AF01CA018E1B9F0B82179307A4F5D7016C9111969C9180ED860FE1
:205600008A3030F08FEB860F8630C0F489EC860F60ED690F6A3030F06FEB690F6630B0F4A2
:2056200069EC690FB0E18B9FC0011124862BDA018D93AD01B2E0EB0EF11CD6CF8FE9860F48
:20564000863010F489EAE3CF80E0E2CF6FE9690F663010F469EAE5CF60E0E4CF2B96AEADDA
:20566000BFAD2B970D900020E9F711977D012B96CEACDFAC2B97EC18FD08D12CC12CC216E6
:20568000D306CCF4D5014D915D014D01B1E08B1A9108C601B7010E94B230A1E0B0E0AC0F73
:2056A000BD1FA80FB91F8C914827D4014C93BFEFCB1ADB0AE4CF808130E08D3231F48F018F
:2056C0000F5F1F4F64963FAD6497F80110E000E0219180ED820F8A3078F48AE0C82EC09EB0
:2056E000C001C19E900D1124022F220F110B00531109080F191FECCF332319F01195019528
:20570000110921E02216310409F408C13CF42114310409F4AFC070E060E0D6C142E02416B2
:20572000310409F44EC153E025163104A1F72796CEACDFAC27976196DFAECEAE6197B601BE
:20574000DD0C880B990B0E941C2F4B015C0123966EAD7FAD2397072E000C880B990B0E94BF
:205760001C2F6B017C0123EC35EF48E85FE30E94572FA50194010E94E1309F772DEC3CECE3
:205780004CEC5DE30E94E1302DEC3CEC4CE45FE30E94E5322B013C0123E333E34BED50E481
:2057A000C501B4010E941C326C966CAF7DAF8EAF9FAF6C9768966EAD7FAD689761962EAD91
:2057C0003FAD6197620F731F072E000C880B990B0E941C2F9F772AE037ED43E25CE30E9433
:2057E000E1300E9443334B015C0121E73DE34AE550E4C701B6010E9452319F772DEC3CEC51
:205800004CEC5DE30E94E1302AE939E949E95FE30E94E5326B017C016C966CAD7DAD8EAD92
:205820009FAD6C979F7721E73DE34AE850E40E94572F9B01AC01C301B2010E94E0302B01AF
:205840003C0120E030E040E85FE3C501B4010E94E1309B01AC016AE979ED80E594E40E94E2
:2058600052319B01AC01C301B2010E94E130A701960151C0A8966CAD7DAD8EAD9FADA8979B
:205880000E941C2F6B017C0120E030E048E850E40E941C3224EA30E745E051E40E94572F27
:2058A0009F772DEC3CEC4CEC5DE30E94E13020E030E040E250E40E94E5322B013C0126E6D2
:2058C00036E646EB50E4C701B6010E9452310E9435334B015C0123EC35EF48E450E4C70195
:2058E000B6010E94572F2AE13EE74EE25FE30E94E030A30192010E94E1306B017C012AE98F
:2059000039EE4DE954E4C501B4010E94572F9B01AC01C701B6010E94E030D2C023966EAD6F
:205920007FAD2397072E000C880B990B0E941C2F6B017C019F772DEC3CEC4CEC5DE30E94C2
:20594000E13020E030E040E05FE30E94E5324B015C012AE939E949E750E4C701B6010E94A8
:2059600052310E944D316B017C01A0966CAD7DAD8EAD9FADA0970E941C2F9B01AC015F7758
:2059800061EE7AEC86E094E40E94523121EE3AE74CE950E40E94E1309B01AC01C501B4013F
:2059A0000E94E0304B015C0126E636EC44E354E4C701B6010E94572F9B01AC01C501B40194
:2059C000AACF25966EAD7FAD2597072E000C880B990B0E941C2F6B017C0125E83BEE41E5E6
:2059E00050E40E941C3224EA30E745EC50E40E94572F9F772DEC3CEC4CEC5DE30E94E1304F
:205A000023E333E343EF5FE30E94E53263966CAF7DAF8EAF9FAF639723E333E343E751E4FD
:205A2000C701B6010E9452310E9483334B015C01A4966CAD7DAD8EAD9FADA4970E941C2F95
:205A400024EA30E74DED5FE30E9452312B013C012DEC3CEC4CE150E4C701B6010E94572FCE
:205A60009B01AC01C301B2010E94E13063962CAD3DAD4EAD5FAD63970E94E0306B017C015B
:205A800020E030E44AEF53E4C501B4010E94572F4B015C0123966EAD7FAD2397072E000C3B
:205AA000880B990B0E941C2F9B01AC01C501B4010E9452319B01AC01C701B6010E94E1305E
:205AC0000E94FA310E94C4312F96AEADBFAD2F976D937C9360177107D1F0CB010197801756
:205AE0009107A9F16F5F7F4F6017710751F06696CEACDFAC66970FB6F894DEBE0FBECDBE65
:205B0000D2CB2F96AEADBFAD2F970D931C936696CEACDFAC66970FB6F894DEBE0FBECDBE04
:205B20002FEF221A320A2F964EAD5FAD2F974E5F5F4F2F965FAF4EAF2F972D968EAD9FAD02
:205B40002D9740962D969FAF8EAF2D971ACD2F96EEADFFAD2F9711830083D9CF049709F08D
:205B6000A2CB1092E9041092EA041092EB041092EC0481E08093C90367E27CE181E392E0BA
:205B80000E94D10C6AEF7BE186E392E00E94D10C6BEE7BE18CE392E00E94D10C63E27EE1BE
:205BA00082E492E00E94D10C68E27EE187E492E00E94D10C6DE27EE18DE492E00E94D10C79
:205BC00062E37EE184E592E00E94D10C67E37EE18AE592E00E94D10C67E37DE180E692E03E
:205BE0000E94D10C6AE37DE188E692E00E94D10C6DE37DE180E792E00E94D10C60E47DE174
:205C000088E792E00E94D10C63E47DE181E892E00E94D10C6AEC7CE18AE892E00E94D10C0F
:205C200042CB6496CFAC6497CC2009F440CBE091A903EF3308F037CB81E08E0F8093A903FD
:205C4000F0E0E759FC4F108332CB8F929F92AF92BF92CF92DF92EF92FF92CF93DF93EC01D0
:205C6000688179818A819B81611571058105910521F464E279ED8BE597E02DE133EF41E019
:205C800050E00E94183049015A019B01AC01A7EAB1E40E9437306B017C01ACEEB4EFA50101
:205CA00094010E944530C60ED71EE81EF91EF7FE06C081E0C81AD108E10880E8F80AC882DE
:205CC000D982EA82FB82C701B6019F77DF91CF91FF90EF90DF90CF90BF90AF909F908F9063
:205CE00008958F929F92AF92BF92CF92DF92EF92FF9260910201709103018091040190910F
:205D00000501611571058105910521F464E279ED8BE597E02DE133EF41E050E00E94183062
:205D200049015A019B01AC01A7EAB1E40E9437306B017C01ACEEB4EFA50194010E944530CE
:205D4000C60ED71EE81EF91EF7FE06C081E0C81AD108E10880E8F80AC0920201D092030178
:205D6000E0920401F0920501C701B6019F77FF90EF90DF90CF90BF90AF909F908F9008953A
:205D8000609302017093030180930401909305010895FA01A191B081009719F41097E1F0AE
:205DA000CD01DC01CD010D90002011F4C00113C0FB012191222319F02015D9F7F3CFFB0155
:205DC0002191201519F41E92119606C02223C1F70D900020A1F7D001FA01A193B083089590
:205DE000BB27FB015527AA27880F991FAA1FA41710F0A41B83955051B9F7A05DAA3308F0AB
:205E0000A95DA193009779F7B111B1931192CB010C940A2FDC01FC01672F71917723E1F70F
:205E2000329704C07C916D9370836291AE17BF07C8F30895E89409C097FB3EF490958095BC
:205E4000709561957F4F8F4F9F4F9923A9F0F92F96E9BB279395F695879577956795B795AC
:205E6000F111F8CFFAF4BB0F11F460FF1BC06F5F7F4F8F4F9F4F16C0882311F096E911C028
:205E8000772321F09EE8872F762F05C0662371F096E8862F70E060E02AF09A95660F771FB0
:205EA000881FDAF7880F9695879597F908950E946A2F0C94DE2F0E94D02F38F00E94D72F06
:205EC00020F0952311F00C94C72F0C94CD2F11240C9412300E94EF2F70F3959FC1F3950F01
:205EE00050E0551F629FF001729FBB27F00DB11D639FAA27F00DB11DAA1F649F6627B00D9A
:205F0000A11D661F829F2227B00DA11D621F739FB00DA11D621F839FA00D611D221F749F29
:205F20003327A00D611D231F849F600D211D822F762F6A2F11249F5750409AF0F1F088230C
:205F40004AF0EE0FFF1FBB1F661F771F881F91505040A9F79E3F510580F00C94C72F0C9466
:205F600012305F3FE4F3983ED4F3869577956795B795F795E7959F5FC1F7FE2B880F911D32
:205F80009695879597F9089599278827089597F99F6780E870E060E008959FEF80EC0895BF
:205FA00000240A941616170618060906089500240A9412161306140605060895092E039479
:205FC000000C11F4882352F0BB0F40F4BF2B11F460FF04C06F5F7F4F8F4F9F4F089557FD5A
:205FE0009058440F551F59F05F3F71F04795880F97FB991F61F09F3F79F087950895121674
:2060000013061406551FF2CF4695F1DF08C0161617061806991FF1CF869571056105089433
:206020000895E894BB2766277727CB0197F90895052E97FB1EF400940E942F3057FD07D0AA
:206040000E94813007FC03D04EF40C942F3050954095309521953F4F4F4F5F4F0895909505
:206060008095709561957F4F8F4F9F4F08950E94A330A59F900DB49F900DA49F800D911D15
:2060800011240895B7FF0C9437300E943730821B930B08952F923F924F925F926F927F921A
:2060A0008F929F92AF92BF92CF92DF92EF92FF920F931F93CF93DF93CDB7DEB7CA1BDB0B0C
:2060C0000FB6F894DEBF0FBECDBF09942A88398848885F846E847D848C849B84AA84B98429
:2060E000C884DF80EE80FD800C811B81AA81B981CE0FD11D0FB6F894DEBF0FBECDBFED017C
:206100000895A1E21A2EAA1BBB1BFD010DC0AA1FBB1FEE1FFF1FA217B307E407F50720F079
:20612000A21BB30BE40BF50B661F771F881F991F1A9469F760957095809590959B01AC01F0
:20614000BD01CF010895A29FB001B39FC001A39F700D811D1124911DB29F700D811D11242E
:20616000911D089597FB072E16F4009407D077FD09D00E94CC3007FC05D03EF49095819568
:206180009F4F0895709561957F4F0895EE0FFF1F0590F491E02D0994AA1BBB1B51E107C09B
:2061A000AA1FBB1FA617B70710F0A61BB70B881F991F5A95A9F780959095BC01CD010895EE
:2061C0005058BB27AA270E94F8300C94DE2F0E94D02F38F00E94D72F20F039F49F3F19F454
:2061E00026F40C94CD2F0EF4E095E7FB0C94C72FE92F0E94EF2F58F3BA1762077307840798
:20620000950720F079F4A6F50C9411300EF4E0950B2EBA2FA02D0B01B90190010C01CA0154
:20622000A0011124FF27591B99F0593F50F4503E68F11A16F040A22F232F342F4427585F9A
:20624000F3CF469537952795A795F0405395C9F77EF41F16BA0B620B730B840BBAF0915094
:20626000A1F0FF0FBB1F661F771F881FC2F70EC0BA0F621F731F841F48F48795779567957D
:20628000B795F7959E3F08F0B0CF9395880F08F09927EE0F9795879508950E949032E3959D
:2062A0000C94B9320E9466310C94DE2F0E94D72F58F00E94D02F40F029F45F3F29F00C9438
:2062C000C72F51110C9412300C94CD2F0E94EF2F68F39923B1F3552391F3951B550BBB277F
:2062E000AA2762177307840738F09F5F5F4F220F331F441FAA1FA9F335D00E2E3AF0E0E8FD
:2063000032D091505040E695001CCAF72BD0FE2F29D0660F771F881FBB1F2617370748073B
:20632000AB07B0E809F0BB0B802DBF01FF2793585F4F3AF09E3F510578F00C94C72F0C942D
:2063400012305F3FE4F3983ED4F3869577956795B795F7959F5FC9F7880F911D96958795A4
:2063600097F90895E1E0660F771F881FBB1F621773078407BA0720F0621B730B840BBA0B05
:20638000EE1F88F7E09508950E94CB316894B1110C94123008950E94F72F88F09F5798F0C6
:2063A000B92F9927B751B0F0E1F0660F771F881F991F1AF0BA95C9F714C0B13091F00E9461
:2063C0001130B1E008950C941130672F782F8827B85F39F0B93FCCF3869577956795B3951F
:2063E000D9F73EF490958095709561957F4F8F4F9F4F08950E94CD3290F09F3748F491115A
:2064000016F00C94123060E070E080E89FEB089526F41B16611D711D811D0C9465320C94A9
:2064200080320E94D02F20F019F00E94D72F50F40C94CD2F0C941230E92F0E94EF2F88F333
:206440005523B1F3E7FB6217730784079507A8F189F3E92FFF2788232AF03197660F771F39
:20646000881FDAF7952F5527442332F091505040220F331F441FD2F7BB27E91BF50B621B58
:20648000730B840BB109B1F222F4620F731F841FB11D31972AF0660F771F881FBB1FEFCFDC
:2064A0009150504062F041F0882332F0660F771F881F91505040C1F793950C9480328695AB
:2064C000779567959F5FD9F7F7CF882371F4772321F09850872B762F07C0662311F4992711
:2064E0000DC09051862B70E060E02AF09A95660F771F881FDAF7880F9695879597F90895D6
:206500009F3F31F0915020F4879577956795B795880F911D9695879597F908950C94CD2FC2
:206520000E94F72FD8F3E894E0E0BB279F57F0F02AED3FE049EC06C0EE0FBB0F661F771FC1
:20654000881F28F0B23A62077307840728F0B25A620B730B840BE3959A9572F7803830F498
:206560009A95BB0F661F771F881FD2F790480C948232EF93E0FF07C0A2EA2AED3FE049EC4C
:206580005FEB0E94F8300E94DE2F0F90039401FC9058ECEAF0E00C9410340E94F72FA0F03B
:2065A000BEE7B91788F4BB279F3860F41616B11D672F782F8827985FF7CF86957795679517
:2065C000B11D93959639C8F30895FA01EE0FFF1F309621053105A1F16115710561F48038DB
:2065E000BFE39B0749F168949038810561F08038BFEF9B0741F099234AF5FF3FE1053105F4
:20660000210519F1E8940894E795D901AA2329F4AB2FBE2FF85FD0F310C0FF5F70F4A69544
:20662000E0F7F73950F019F0FF3A38F49F779F930DD00F9007FC9058089546F00C94CD2F87
:2066400060E070E080E89FE308954FE79F775F934F933F932F930E946E342F913F914F91BB
:206660005F910E94572F0C94B0339F930E9490320F9007FCEE5F0C94B93219F416F40C94B8
:20668000CD2F0C9480320E94F72FB8F39923C9F3B6F39F57550B87FF0E94E2330024A0E6DB
:2066A00040EA900180585695979528F4805C660F771F881F20F026173707480730F4621B0B
:2066C000730B840B202931294A2BA69517940794202531254A2758F7660F771F881F20F0F7
:2066E00026173707480730F4620B730B840B200D311D411DA09581F7B901842F9158880FBF
:20670000969587950895DF93D92F0E949032E695D7952AED3FE049E45FE3B33A620773075B
:2067200084079507D7953AF0A2EA49EC90680E94F8300E94DE2FEAECF0E00E941034DD0FF2
:2067400013F00E942434DD0F0BF49058DF91089529F416F00C94C72F0C9411300C94CD2F26
:206760000E94F72FA8F39638A0F707F80F92E8942BE33AEA48EB5FE70E946D2F0F920F920A
:206780000F924DB75EB70F920E94B634EDEEF0E00E94E9334F915F91EF91FF91E595EE1F42
:2067A000FF1F49F0FE57E0684427EE0F441FFA95E1F74195550B0E9430340F9007FE0C9433
:2067C0002434089591505040660F771F881FD2F70895DF93CF931F930F93FF92EF92DF9290
:2067E0007B018C01689406C0DA2EEF010E946A2FFE01E894A5912591359145915591A6F319
:20680000EF010E94F830FE019701A801DA9469F7DF90EF90FF900F911F91CF91DF91089576
:206820009F938F937F936F93FF93EF939B01AC010E94572FEF91FF910E94E9332F913F910D
:206840004F915F910C94572F9B01AC0160E070E080E89FE30C9452310C94C72F0C94803274
:206860000E94F72FD8F39923C9F3940F511DA3F39150504094F059F0882332F0660F771F50
:20688000881F91505040C1F79E3F51052CF7880F911D9695879597F908955F3FACF0983E09
:2068A0009CF0BB27869577956795B79508F4B1609395C1F7BB0F58F711F460FFE8CF6F5F0C
:2068C0007F4F8F4F9F4FE3CF0C94123016F00C9480320C94CD2F68940C94C72F0E94F72F3C
:2068E000A8F39923C1F3AEF3DF93CF931F930F93FF92C92FDD2788232AF02197660F771FAF
:20690000881FDAF720E030E040E85FEB9FE3883920F0803E38F021968F770E94E130E5E10E
:20692000F1E004C00E94E130E2E4F1E00E94E9338B01BE01EC01FB2E6F5771097595771F79
